{
  "contractName": "Counter",
  "abi": [
    {
      "constant": true,
      "inputs": [],
      "name": "value",
      "outputs": [
        {
          "internalType": "int256",
          "name": "",
          "type": "int256"
        }
      ],
      "payable": false,
      "stateMutability": "view",
      "type": "function"
    },
    {
      "constant": false,
      "inputs": [],
      "name": "add",
      "outputs": [],
      "payable": false,
      "stateMutability": "nonpayable",
      "type": "function"
    },
    {
      "constant": false,
      "inputs": [],
      "name": "sub",
      "outputs": [],
      "payable": false,
      "stateMutability": "nonpayable",
      "type": "function"
    }
  ],
  "bytecode": "0x608060405234801561001057600080fd5b5060c48061001f6000396000f3fe6080604052348015600f57600080fd5b5060043610603c5760003560e01c80633fa4f2451460415780634f2be91f14605d578063c54124be146065575b600080fd5b6047606d565b6040518082815260200191505060405180910390f35b60636073565b005b606b6081565b005b60005481565b600160005401600081905550565b60016000540360008190555056fea265627a7a7231582038da4eed96a791af6acfb33dd0aefbe537c2b1b6da3230368a14957799c29ab064736f6c634300050c0032",
  "source": "pragma solidity >=0.5.0 <0.6.0;\n\ncontract Counter {\n    int256 public value;\n\n    function add() public {\n        value = value + 1;\n    }\n\n    function sub() public {\n        value = value - 1;\n    }\n}\n",
  "sourcePath": "/workspaces/sample/contracts/Counter.sol",
  "compiler": {
    "name": "solc",
    "version": "0.5.12+commit.7709ece9.Emscripten.clang"
  },
  "schemaVersion": "3.0.19",
  "updatedAt": "2019-11-14T07:35:33.669Z",
  "networkType": "ethereum",
  "devdoc": {
    "methods": {}
  },
  "userdoc": {
    "methods": {}
  }
}